{
  "_format": "hh-sol-artifact-1",
  "contractName": "CharityDonationTracker",
  "sourceName": "contracts/CharityDonationTracker.sol",
  "abi": [
    {
      "inputs": [],
      "stateMutability": "nonpayable",
      "type": "constructor"
    },
    {
      "anonymous": false,
      "inputs": [
        {
          "indexed": true,
          "internalType": "uint256",
          "name": "campaignId",
          "type": "uint256"
        },
        {
          "indexed": true,
          "internalType": "address",
          "name": "charity",
          "type": "address"
        },
        {
          "indexed": false,
          "internalType": "string",
          "name": "title",
          "type": "string"
        }
      ],
      "name": "CampaignCreated",
      "type": "event"
    },
    {
      "anonymous": false,
      "inputs": [
        {
          "indexed": true,
          "internalType": "address",
          "name": "charity",
          "type": "address"
        }
      ],
      "name": "CharityVerified",
      "type": "event"
    },
    {
      "anonymous": false,
      "inputs": [
        {
          "indexed": true,
          "internalType": "uint256",
          "name": "donationId",
          "type": "uint256"
        },
        {
          "indexed": true,
          "internalType": "uint256",
          "name": "campaignId",
          "type": "uint256"
        },
        {
          "indexed": true,
          "internalType": "address",
          "name": "donor",
          "type": "address"
        },
        {
          "indexed": false,
          "internalType": "uint256",
          "name": "amount",
          "type": "uint256"
        }
      ],
      "name": "DonationReceived",
      "type": "event"
    },
    {
      "anonymous": false,
      "inputs": [
        {
          "indexed": true,
          "internalType": "uint256",
          "name": "proofId",
          "type": "uint256"
        },
        {
          "indexed": true,
          "internalType": "uint256",
          "name": "campaignId",
          "type": "uint256"
        },
        {
          "indexed": false,
          "internalType": "string",
          "name": "ipfsHash",
          "type": "string"
        }
      ],
      "name": "ExpenseProofAdded",
      "type": "event"
    },
    {
      "anonymous": false,
      "inputs": [
        {
          "indexed": true,
          "internalType": "uint256",
          "name": "proofId",
          "type": "uint256"
        }
      ],
      "name": "ProofVerified",
      "type": "event"
    },
    {
      "anonymous": false,
      "inputs": [
        {
          "indexed": true,
          "internalType": "uint256",
          "name": "withdrawalId",
          "type": "uint256"
        },
        {
          "indexed": false,
          "internalType": "uint256",
          "name": "amount",
          "type": "uint256"
        }
      ],
      "name": "WithdrawalApproved",
      "type": "event"
    },
    {
      "anonymous": false,
      "inputs": [
        {
          "indexed": true,
          "internalType": "uint256",
          "name": "withdrawalId",
          "type": "uint256"
        },
        {
          "indexed": true,
          "internalType": "uint256",
          "name": "campaignId",
          "type": "uint256"
        },
        {
          "indexed": false,
          "internalType": "uint256",
          "name": "amount",
          "type": "uint256"
        }
      ],
      "name": "WithdrawalRequested",
      "type": "event"
    },
    {
      "inputs": [
        {
          "internalType": "uint256",
          "name": "campaignId",
          "type": "uint256"
        },
        {
          "internalType": "uint256",
          "name": "amountUsed",
          "type": "uint256"
        },
        {
          "internalType": "string",
          "name": "purpose",
          "type": "string"
        },
        {
          "internalType": "string",
          "name": "ipfsHash",
          "type": "string"
        }
      ],
      "name": "addExpenseProof",
      "outputs": [],
      "stateMutability": "nonpayable",
      "type": "function"
    },
    {
      "inputs": [
        {
          "internalType": "uint256",
          "name": "withdrawalId",
          "type": "uint256"
        }
      ],
      "name": "approveWithdrawal",
      "outputs": [],
      "stateMutability": "nonpayable",
      "type": "function"
    },
    {
      "inputs": [],
      "name": "campaignCount",
      "outputs": [
        {
          "internalType": "uint256",
          "name": "",
          "type": "uint256"
        }
      ],
      "stateMutability": "view",
      "type": "function"
    },
    {
      "inputs": [
        {
          "internalType": "uint256",
          "name": "",
          "type": "uint256"
        }
      ],
      "name": "campaigns",
      "outputs": [
        {
          "internalType": "uint256",
          "name": "id",
          "type": "uint256"
        },
        {
          "internalType": "string",
          "name": "title",
          "type": "string"
        },
        {
          "internalType": "string",
          "name": "description",
          "type": "string"
        },
        {
          "internalType": "address payable",
          "name": "charity",
          "type": "address"
        },
        {
          "internalType": "uint256",
          "name": "goalAmount",
          "type": "uint256"
        },
        {
          "internalType": "uint256",
          "name": "raisedAmount",
          "type": "uint256"
        },
        {
          "internalType": "bool",
          "name": "active",
          "type": "bool"
        }
      ],
      "stateMutability": "view",
      "type": "function"
    },
    {
      "inputs": [
        {
          "internalType": "string",
          "name": "title",
          "type": "string"
        },
        {
          "internalType": "string",
          "name": "description",
          "type": "string"
        },
        {
          "internalType": "uint256",
          "name": "goalAmount",
          "type": "uint256"
        }
      ],
      "name": "createCampaign",
      "outputs": [
        {
          "internalType": "uint256",
          "name": "",
          "type": "uint256"
        }
      ],
      "stateMutability": "nonpayable",
      "type": "function"
    },
    {
      "inputs": [
        {
          "internalType": "uint256",
          "name": "campaignId",
          "type": "uint256"
        }
      ],
      "name": "donateToCampaign",
      "outputs": [],
      "stateMutability": "payable",
      "type": "function"
    },
    {
      "inputs": [],
      "name": "donationCount",
      "outputs": [
        {
          "internalType": "uint256",
          "name": "",
          "type": "uint256"
        }
      ],
      "stateMutability": "view",
      "type": "function"
    },
    {
      "inputs": [
        {
          "internalType": "uint256",
          "name": "",
          "type": "uint256"
        }
      ],
      "name": "donations",
      "outputs": [
        {
          "internalType": "uint256",
          "name": "id",
          "type": "uint256"
        },
        {
          "internalType": "uint256",
          "name": "campaignId",
          "type": "uint256"
        },
        {
          "internalType": "address",
          "name": "donor",
          "type": "address"
        },
        {
          "internalType": "uint256",
          "name": "amount",
          "type": "uint256"
        },
        {
          "internalType": "uint256",
          "name": "timestamp",
          "type": "uint256"
        }
      ],
      "stateMutability": "view",
      "type": "function"
    },
    {
      "inputs": [],
      "name": "getContractBalance",
      "outputs": [
        {
          "internalType": "uint256",
          "name": "",
          "type": "uint256"
        }
      ],
      "stateMutability": "view",
      "type": "function"
    },
    {
      "inputs": [],
      "name": "owner",
      "outputs": [
        {
          "internalType": "address",
          "name": "",
          "type": "address"
        }
      ],
      "stateMutability": "view",
      "type": "function"
    },
    {
      "inputs": [],
      "name": "proofCount",
      "outputs": [
        {
          "internalType": "uint256",
          "name": "",
          "type": "uint256"
        }
      ],
      "stateMutability": "view",
      "type": "function"
    },
    {
      "inputs": [
        {
          "internalType": "uint256",
          "name": "",
          "type": "uint256"
        }
      ],
      "name": "proofs",
      "outputs": [
        {
          "internalType": "uint256",
          "name": "id",
          "type": "uint256"
        },
        {
          "internalType": "uint256",
          "name": "campaignId",
          "type": "uint256"
        },
        {
          "internalType": "uint256",
          "name": "amountUsed",
          "type": "uint256"
        },
        {
          "internalType": "string",
          "name": "purpose",
          "type": "string"
        },
        {
          "internalType": "string",
          "name": "ipfsHash",
          "type": "string"
        },
        {
          "internalType": "address",
          "name": "uploadedBy",
          "type": "address"
        },
        {
          "internalType": "uint256",
          "name": "timestamp",
          "type": "uint256"
        },
        {
          "internalType": "bool",
          "name": "verified",
          "type": "bool"
        }
      ],
      "stateMutability": "view",
      "type": "function"
    },
    {
      "inputs": [
        {
          "internalType": "uint256",
          "name": "campaignId",
          "type": "uint256"
        },
        {
          "internalType": "uint256",
          "name": "amount",
          "type": "uint256"
        },
        {
          "internalType": "string",
          "name": "reason",
          "type": "string"
        }
      ],
      "name": "requestWithdrawal",
      "outputs": [],
      "stateMutability": "nonpayable",
      "type": "function"
    },
    {
      "inputs": [
        {
          "internalType": "address",
          "name": "",
          "type": "address"
        }
      ],
      "name": "verifiedCharities",
      "outputs": [
        {
          "internalType": "bool",
          "name": "",
          "type": "bool"
        }
      ],
      "stateMutability": "view",
      "type": "function"
    },
    {
      "inputs": [
        {
          "internalType": "address",
          "name": "charityAddress",
          "type": "address"
        }
      ],
      "name": "verifyCharity",
      "outputs": [],
      "stateMutability": "nonpayable",
      "type": "function"
    },
    {
      "inputs": [
        {
          "internalType": "uint256",
          "name": "proofId",
          "type": "uint256"
        }
      ],
      "name": "verifyProof",
      "outputs": [],
      "stateMutability": "nonpayable",
      "type": "function"
    },
    {
      "inputs": [],
      "name": "withdrawalCount",
      "outputs": [
        {
          "internalType": "uint256",
          "name": "",
          "type": "uint256"
        }
      ],
      "stateMutability": "view",
      "type": "function"
    },
    {
      "inputs": [
        {
          "internalType": "uint256",
          "name": "",
          "type": "uint256"
        }
      ],
      "name": "withdrawals",
      "outputs": [
        {
          "internalType": "uint256",
          "name": "id",
          "type": "uint256"
        },
        {
          "internalType": "uint256",
          "name": "campaignId",
          "type": "uint256"
        },
        {
          "internalType": "address payable",
          "name": "charity",
          "type": "address"
        },
        {
          "internalType": "uint256",
          "name": "amount",
          "type": "uint256"
        },
        {
          "internalType": "string",
          "name": "reason",
          "type": "string"
        },
        {
          "internalType": "bool",
          "name": "approved",
          "type": "bool"
        },
        {
          "internalType": "uint256",
          "name": "timestamp",
          "type": "uint256"
        }
      ],
      "stateMutability": "view",
      "type": "function"
    }
  ],
  "bytecode": "0x608060405234801561001057600080fd5b50600080546001600160a01b0319163390811782558152600960205260409020805460ff191660011790556116fb8061004a6000396000f3fe6080604052600436106101095760003560e01c80637274e30d116100955780639eceddea116100645780639eceddea146102e1578063a3c821a714610301578063addecc0614610341578063f8626af814610357578063ffa56a57146103e157600080fd5b80637274e30d1461023f5780638b6958ff146102555780638da5cb5b146102755780639ddaf5aa146102ad57600080fd5b806342a4fda8116100dc57806342a4fda8146101b05780635cc07076146101c35780636f9fb98a146101f657806371706cbe14610209578063720975481461021f57600080fd5b806302e61f041461010e578063141961bc1461013057806320e7f66c1461016c5780632abfab4d1461018c575b600080fd5b34801561011a57600080fd5b5061012e610129366004611200565b610401565b005b34801561013c57600080fd5b5061015061014b366004611277565b6105ab565b60405161016397969594939291906112d6565b60405180910390f35b34801561017857600080fd5b5061012e610187366004611333565b610704565b34801561019857600080fd5b506101a260025481565b604051908152602001610163565b61012e6101be366004611277565b6108ef565b3480156101cf57600080fd5b506101e36101de366004611277565b610abe565b6040516101639796959493929190611383565b34801561020257600080fd5b50476101a2565b34801561021557600080fd5b506101a260045481565b34801561022b57600080fd5b5061012e61023a3660046113cc565b610b91565b34801561024b57600080fd5b506101a260015481565b34801561026157600080fd5b5061012e610270366004611277565b610c07565b34801561028157600080fd5b50600054610295906001600160a01b031681565b6040516001600160a01b039091168152602001610163565b3480156102b957600080fd5b506102cd6102c8366004611277565b610cc9565b6040516101639897969594939291906113fc565b3480156102ed57600080fd5b5061012e6102fc366004611277565b610e2b565b34801561030d57600080fd5b5061033161031c3660046113cc565b60096020526000908152604090205460ff1681565b6040519015158152602001610163565b34801561034d57600080fd5b506101a260035481565b34801561036357600080fd5b506103ab610372366004611277565b60066020526000908152604090208054600182015460028301546003840154600490940154929391926001600160a01b03909116919085565b6040805195865260208601949094526001600160a01b03909216928401929092526060830191909152608082015260a001610163565b3480156103ed57600080fd5b506101a26103fc366004611462565b610fe6565b60008411801561041357506001548411155b6104385760405162461bcd60e51b815260040161042f906114cf565b60405180910390fd5b600081511161047e5760405162461bcd60e51b815260206004820152601260248201527112541194c81a185cda081c995c5d5a5c995960721b604482015260640161042f565b6003805490600061048e83611511565b9091555050604080516101008101825260038054808352602080840189815284860189815260608601898152608087018990523360a08801524260c0880152600060e0880181905294855260079093529590922084518155915160018301559351600282015592519192919082019061050790826115b5565b506080820151600482019061051c90826115b5565b5060a08201516005820180546001600160a01b0319166001600160a01b0390921691909117905560c0820151600682015560e0909101516007909101805460ff19169115159190911790556003546040518591907fa1abaf976c316a8c884de18211d4653e358a473d3e6a41c3507bdd30da19123f9061059d908590611675565b60405180910390a350505050565b600560205260009081526040902080546001820180549192916105cd9061152a565b80601f01602080910402602001604051908101604052809291908181526020018280546105f99061152a565b80156106465780601f1061061b57610100808354040283529160200191610646565b820191906000526020600020905b81548152906001019060200180831161062957829003601f168201915b50505050509080600201805461065b9061152a565b80601f01602080910402602001604051908101604052809291908181526020018280546106879061152a565b80156106d45780601f106106a9576101008083540402835291602001916106d4565b820191906000526020600020905b8154815290600101906020018083116106b757829003601f168201915b5050505060038301546004840154600585015460069095015493946001600160a01b039092169390925060ff1687565b60008311801561071657506001548311155b6107325760405162461bcd60e51b815260040161042f906114cf565b6000838152600560205260409020600301546001600160a01b031633146107935760405162461bcd60e51b81526020600482015260156024820152744f6e6c792063616d706169676e206368617269747960581b604482015260640161042f565b600082116107d55760405162461bcd60e51b815260206004820152600f60248201526e105b5bdd5b9d081c995c5d5a5c9959608a1b604482015260640161042f565b600480549060006107e583611511565b90915550506040805160e0810182526004805480835260208084018881526000898152600583528681206003908101546001600160a01b03908116888a01908152606089018c815260808a018c815260a08b018690524260c08c0152978552600890965298909220875181559251600184015596516002830180546001600160a01b03191691909216179055905194810194909455519192919082019061088c90826115b5565b5060a082015160058201805460ff191691151591909117905560c0909101516006909101556004546040518381528491907f09d828bc6585cea40a1c1b428245be880262a626ee4da48d49c97a302ae4017f9060200160405180910390a3505050565b60008111801561090157506001548111155b61091d5760405162461bcd60e51b815260040161042f906114cf565b60008181526005602052604090206006015460ff166109725760405162461bcd60e51b815260206004820152601160248201527043616d706169676e20696e61637469766560781b604482015260640161042f565b600034116109cd5760405162461bcd60e51b815260206004820152602260248201527f446f6e6174696f6e206d7573742062652067726561746572207468616e207a65604482015261726f60f01b606482015260840161042f565b600081815260056020819052604082200180543492906109ee908490611688565b909155505060028054906000610a0383611511565b90915550506040805160a0810182526002805480835260208084018681523385870181815234606088018181524260808a01908152600097885260068752968a90209851895593516001890155905187870180546001600160a01b0319166001600160a01b039092169190911790559151600387015592516004909501949094559154935192835292849290917f329e8e0769f2ec514c87397c2a6865593736c6ac34cef17b982aac755449cd6b910160405180910390a450565b60086020526000908152604090208054600182015460028301546003840154600485018054949593946001600160a01b03909316939192610afe9061152a565b80601f0160208091040260200160405190810160405280929190818152602001828054610b2a9061152a565b8015610b775780601f10610b4c57610100808354040283529160200191610b77565b820191906000526020600020905b815481529060010190602001808311610b5a57829003601f168201915b505050506005830154600690930154919260ff1691905087565b6000546001600160a01b03163314610bbb5760405162461bcd60e51b815260040161042f906116a1565b6001600160a01b038116600081815260096020526040808220805460ff19166001179055517f27ecb4f695edff6a3981d86a210339a309eba3476cebdde8ed999783024dd5949190a250565b6000546001600160a01b03163314610c315760405162461bcd60e51b815260040161042f906116a1565b600081118015610c4357506003548111155b610c815760405162461bcd60e51b815260206004820152600f60248201526e141c9bdbd9881b9bdd08199bdd5b99608a1b604482015260640161042f565b6000818152600760208190526040808320909101805460ff191660011790555182917f4eb5ee08f6bd1352ed7b0dac0ee5e5b7cb984b0477d694d9db613b705f47f2ab91a250565b600760205260009081526040902080546001820154600283015460038401805493949293919291610cf99061152a565b80601f0160208091040260200160405190810160405280929190818152602001828054610d259061152a565b8015610d725780601f10610d4757610100808354040283529160200191610d72565b820191906000526020600020905b815481529060010190602001808311610d5557829003601f168201915b505050505090806004018054610d879061152a565b80601f0160208091040260200160405190810160405280929190818152602001828054610db39061152a565b8015610e005780601f10610dd557610100808354040283529160200191610e00565b820191906000526020600020905b815481529060010190602001808311610de357829003601f168201915b505050506005830154600684015460079094015492936001600160a01b039091169290915060ff1688565b6000546001600160a01b03163314610e555760405162461bcd60e51b815260040161042f906116a1565b600081118015610e6757506004548111155b610eaa5760405162461bcd60e51b815260206004820152601460248201527315da5d1a191c985dd85b081b9bdd08199bdd5b9960621b604482015260640161042f565b6000818152600860205260409020600581015460ff1615610f005760405162461bcd60e51b815260206004820152601060248201526f105b1c9958591e48185c1c1c9bdd995960821b604482015260640161042f565b8060030154471015610f545760405162461bcd60e51b815260206004820152601d60248201527f496e73756666696369656e7420636f6e74726163742062616c616e6365000000604482015260640161042f565b60058101805460ff19166001179055600281015460038201546040516001600160a01b039092169181156108fc0291906000818181858888f19350505050158015610fa3573d6000803e3d6000fd5b50817fadcd94460dc1e6a5ebcafe0566a36555677729ac6ad68694b44213ae14db94018260030154604051610fda91815260200190565b60405180910390a25050565b60008082116110375760405162461bcd60e51b815260206004820152601e60248201527f476f616c206d7573742062652067726561746572207468616e207a65726f0000604482015260640161042f565b6001805490600061104783611511565b90915550506040805160e08101825260018054808352602080840189815284860189905233606086015260808501889052600060a0860181905260c086018590529283526005909152939020825181559251919291908201906110aa90826115b5565b50604082015160028201906110bf90826115b5565b5060608201516003820180546001600160a01b0319166001600160a01b039092169190911790556080820151600482015560a0820151600582015560c0909101516006909101805460ff19169115159190911790556001546040513391907fc04c663886cae794dc52158f70fe6c8ee3b0140d4f48647282f9b693ff688a659061114a908890611675565b60405180910390a3506001549392505050565b634e487b7160e01b600052604160045260246000fd5b600082601f83011261118457600080fd5b813567ffffffffffffffff8082111561119f5761119f61115d565b604051601f8301601f19908116603f011681019082821181831017156111c7576111c761115d565b816040528381528660208588010111156111e057600080fd5b836020870160208301376000602085830101528094505050505092915050565b6000806000806080858703121561121657600080fd5b8435935060208501359250604085013567ffffffffffffffff8082111561123c57600080fd5b61124888838901611173565b9350606087013591508082111561125e57600080fd5b5061126b87828801611173565b91505092959194509250565b60006020828403121561128957600080fd5b5035919050565b6000815180845260005b818110156112b65760208185018101518683018201520161129a565b506000602082860101526020601f19601f83011685010191505092915050565b87815260e0602082015260006112ef60e0830189611290565b82810360408401526113018189611290565b6001600160a01b039790971660608401525050608081019390935260a0830191909152151560c0909101529392505050565b60008060006060848603121561134857600080fd5b8335925060208401359150604084013567ffffffffffffffff81111561136d57600080fd5b61137986828701611173565b9150509250925092565b87815286602082015260018060a01b038616604082015284606082015260e0608082015260006113b660e0830186611290565b93151560a08301525060c0015295945050505050565b6000602082840312156113de57600080fd5b81356001600160a01b03811681146113f557600080fd5b9392505050565b60006101008a835289602084015288604084015280606084015261142281840189611290565b905082810360808401526114368188611290565b6001600160a01b039690961660a0840152505060c0810192909252151560e09091015295945050505050565b60008060006060848603121561147757600080fd5b833567ffffffffffffffff8082111561148f57600080fd5b61149b87838801611173565b945060208601359150808211156114b157600080fd5b506114be86828701611173565b925050604084013590509250925092565b60208082526012908201527110d85b5c185a59db881b9bdd08199bdd5b9960721b604082015260600190565b634e487b7160e01b600052601160045260246000fd5b600060018201611523576115236114fb565b5060010190565b600181811c9082168061153e57607f821691505b60208210810361155e57634e487b7160e01b600052602260045260246000fd5b50919050565b601f8211156115b0576000816000526020600020601f850160051c8101602086101561158d5750805b601f850160051c820191505b818110156115ac57828155600101611599565b5050505b505050565b815167ffffffffffffffff8111156115cf576115cf61115d565b6115e3816115dd845461152a565b84611564565b602080601f83116001811461161857600084156116005750858301515b600019600386901b1c1916600185901b1785556115ac565b600085815260208120601f198616915b8281101561164757888601518255948401946001909101908401611628565b50858210156116655787850151600019600388901b60f8161c191681555b5050505050600190811b01905550565b6020815260006113f56020830184611290565b8082018082111561169b5761169b6114fb565b92915050565b6020808252600a908201526927b7363c9037bbb732b960b11b60408201526060019056fea2646970667358221220b33e64227519cff89b54710aa211df7f0fc957da50f029e594a5c9f7ba60268764736f6c63430008180033",
  "linkReferences": {},
  "deployedLinkReferences": {}
}